{
  "abi": [
    {
      "inputs": [],
      "stateMutability": "nonpayable",
      "type": "constructor"
    },
    {
      "anonymous": false,
      "inputs": [
        {
          "indexed": true,
          "internalType": "address",
          "name": "account",
          "type": "address"
        },
        {
          "indexed": true,
          "internalType": "address",
          "name": "operator",
          "type": "address"
        },
        {
          "indexed": false,
          "internalType": "bool",
          "name": "approved",
          "type": "bool"
        }
      ],
      "name": "ApprovalForAll",
      "type": "event"
    },
    {
      "anonymous": false,
      "inputs": [
        {
          "indexed": true,
          "internalType": "address",
          "name": "operator",
          "type": "address"
        },
        {
          "indexed": true,
          "internalType": "address",
          "name": "from",
          "type": "address"
        },
        {
          "indexed": true,
          "internalType": "address",
          "name": "to",
          "type": "address"
        },
        {
          "indexed": false,
          "internalType": "uint256[]",
          "name": "ids",
          "type": "uint256[]"
        },
        {
          "indexed": false,
          "internalType": "uint256[]",
          "name": "values",
          "type": "uint256[]"
        }
      ],
      "name": "TransferBatch",
      "type": "event"
    },
    {
      "anonymous": false,
      "inputs": [
        {
          "indexed": true,
          "internalType": "address",
          "name": "operator",
          "type": "address"
        },
        {
          "indexed": true,
          "internalType": "address",
          "name": "from",
          "type": "address"
        },
        {
          "indexed": true,
          "internalType": "address",
          "name": "to",
          "type": "address"
        },
        {
          "indexed": false,
          "internalType": "uint256",
          "name": "id",
          "type": "uint256"
        },
        {
          "indexed": false,
          "internalType": "uint256",
          "name": "value",
          "type": "uint256"
        }
      ],
      "name": "TransferSingle",
      "type": "event"
    },
    {
      "anonymous": false,
      "inputs": [
        {
          "indexed": false,
          "internalType": "string",
          "name": "value",
          "type": "string"
        },
        {
          "indexed": true,
          "internalType": "uint256",
          "name": "id",
          "type": "uint256"
        }
      ],
      "name": "URI",
      "type": "event"
    },
    {
      "inputs": [],
      "name": "_lottoFee",
      "outputs": [
        {
          "internalType": "uint256",
          "name": "",
          "type": "uint256"
        }
      ],
      "stateMutability": "view",
      "type": "function"
    },
    {
      "inputs": [
        {
          "internalType": "address",
          "name": "account",
          "type": "address"
        },
        {
          "internalType": "uint256",
          "name": "id",
          "type": "uint256"
        }
      ],
      "name": "balanceOf",
      "outputs": [
        {
          "internalType": "uint256",
          "name": "",
          "type": "uint256"
        }
      ],
      "stateMutability": "view",
      "type": "function"
    },
    {
      "inputs": [
        {
          "internalType": "address[]",
          "name": "accounts",
          "type": "address[]"
        },
        {
          "internalType": "uint256[]",
          "name": "ids",
          "type": "uint256[]"
        }
      ],
      "name": "balanceOfBatch",
      "outputs": [
        {
          "internalType": "uint256[]",
          "name": "",
          "type": "uint256[]"
        }
      ],
      "stateMutability": "view",
      "type": "function"
    },
    {
      "inputs": [
        {
          "internalType": "address",
          "name": "account",
          "type": "address"
        },
        {
          "internalType": "address",
          "name": "operator",
          "type": "address"
        }
      ],
      "name": "isApprovedForAll",
      "outputs": [
        {
          "internalType": "bool",
          "name": "",
          "type": "bool"
        }
      ],
      "stateMutability": "view",
      "type": "function"
    },
    {
      "inputs": [
        {
          "internalType": "string",
          "name": "tokenURI",
          "type": "string"
        }
      ],
      "name": "mintImage",
      "outputs": [
        {
          "internalType": "uint256",
          "name": "",
          "type": "uint256"
        }
      ],
      "stateMutability": "payable",
      "type": "function"
    },
    {
      "inputs": [
        {
          "internalType": "address",
          "name": "from",
          "type": "address"
        },
        {
          "internalType": "address",
          "name": "to",
          "type": "address"
        },
        {
          "internalType": "uint256[]",
          "name": "ids",
          "type": "uint256[]"
        },
        {
          "internalType": "uint256[]",
          "name": "amounts",
          "type": "uint256[]"
        },
        {
          "internalType": "bytes",
          "name": "data",
          "type": "bytes"
        }
      ],
      "name": "safeBatchTransferFrom",
      "outputs": [],
      "stateMutability": "nonpayable",
      "type": "function"
    },
    {
      "inputs": [
        {
          "internalType": "address",
          "name": "from",
          "type": "address"
        },
        {
          "internalType": "address",
          "name": "to",
          "type": "address"
        },
        {
          "internalType": "uint256",
          "name": "id",
          "type": "uint256"
        },
        {
          "internalType": "uint256",
          "name": "amount",
          "type": "uint256"
        },
        {
          "internalType": "bytes",
          "name": "data",
          "type": "bytes"
        }
      ],
      "name": "safeTransferFrom",
      "outputs": [],
      "stateMutability": "nonpayable",
      "type": "function"
    },
    {
      "inputs": [
        {
          "internalType": "address",
          "name": "operator",
          "type": "address"
        },
        {
          "internalType": "bool",
          "name": "approved",
          "type": "bool"
        }
      ],
      "name": "setApprovalForAll",
      "outputs": [],
      "stateMutability": "nonpayable",
      "type": "function"
    },
    {
      "inputs": [
        {
          "internalType": "bytes4",
          "name": "interfaceId",
          "type": "bytes4"
        }
      ],
      "name": "supportsInterface",
      "outputs": [
        {
          "internalType": "bool",
          "name": "",
          "type": "bool"
        }
      ],
      "stateMutability": "view",
      "type": "function"
    },
    {
      "inputs": [
        {
          "internalType": "uint256",
          "name": "",
          "type": "uint256"
        }
      ],
      "name": "uri",
      "outputs": [
        {
          "internalType": "string",
          "name": "",
          "type": "string"
        }
      ],
      "stateMutability": "view",
      "type": "function"
    }
  ],
  "bytecode": "60806040523480156200001157600080fd5b506004805462000021906200017c565b80601f01602080910402602001604051908101604052809291908181526020018280546200004f906200017c565b8015620000a05780601f106200007457610100808354040283529160200191620000a0565b820191906000526020600020905b8154815290600101906020018083116200008257829003601f168201915b5050505050620000b681620000bd60201b60201c565b50620001b9565b8051620000d2906002906020840190620000d6565b5050565b828054620000e4906200017c565b90600052602060002090601f01602090048101928262000108576000855562000153565b82601f106200012357805160ff191683800117855562000153565b8280016001018555821562000153579182015b828111156200015357825182559160200191906001019062000136565b506200016192915062000165565b5090565b5b8082111562000161576000815560010162000166565b600181811c908216806200019157607f821691505b60208210811415620001b357634e487b7160e01b600052602260045260246000fd5b50919050565b6116ad80620001c96000396000f3fe6080604052600436106100905760003560e01c80634e1273f4116100595780634e1273f41461015a578063a22cb46514610187578063e985e9c5146101a7578063ea92df56146101f0578063f242432a1461020657600080fd5b8062fdd58e1461009557806301ffc9a7146100c85780630e89341c146100f8578063187af988146101255780632eb2c2d614610138575b600080fd5b3480156100a157600080fd5b506100b56100b0366004610e54565b610226565b6040519081526020015b60405180910390f35b3480156100d457600080fd5b506100e86100e3366004610e97565b6102bd565b60405190151581526020016100bf565b34801561010457600080fd5b50610118610113366004610ebb565b61030f565b6040516100bf9190610f21565b6100b5610133366004610fd5565b6103a3565b34801561014457600080fd5b506101586101533660046110db565b6103e5565b005b34801561016657600080fd5b5061017a610175366004611185565b61047c565b6040516100bf919061128b565b34801561019357600080fd5b506101586101a236600461129e565b6105a6565b3480156101b357600080fd5b506100e86101c23660046112da565b6001600160a01b03918216600090815260016020908152604080832093909416825291909152205460ff1690565b3480156101fc57600080fd5b506100b560055481565b34801561021257600080fd5b5061015861022136600461130d565b61067d565b60006001600160a01b0383166102975760405162461bcd60e51b815260206004820152602b60248201527f455243313135353a2062616c616e636520717565727920666f7220746865207a60448201526a65726f206164647265737360a81b60648201526084015b60405180910390fd5b506000908152602081815260408083206001600160a01b03949094168352929052205490565b60006001600160e01b03198216636cdb3d1360e11b14806102ee57506001600160e01b031982166303a24d0760e21b145b8061030957506301ffc9a760e01b6001600160e01b03198316145b92915050565b60606002805461031e90611372565b80601f016020809104026020016040519081016040528092919081815260200182805461034a90611372565b80156103975780601f1061036c57610100808354040283529160200191610397565b820191906000526020600020905b81548152906001019060200180831161037a57829003601f168201915b50505050509050919050565b60006103b3600380546001019055565b60006103be60035490565b90506103dc3382600160405180602001604052806000815250610704565b6103098361080e565b6001600160a01b038516331480610401575061040185336101c2565b6104685760405162461bcd60e51b815260206004820152603260248201527f455243313135353a207472616e736665722063616c6c6572206973206e6f74206044820152711bdddb995c881b9bdc88185c1c1c9bdd995960721b606482015260840161028e565b6104758585858585610825565b5050505050565b606081518351146104e15760405162461bcd60e51b815260206004820152602960248201527f455243313135353a206163636f756e747320616e6420696473206c656e677468604482015268040dad2e6dac2e8c6d60bb1b606482015260840161028e565b6000835167ffffffffffffffff8111156104fd576104fd610f34565b604051908082528060200260200182016040528015610526578160200160208202803683370190505b50905060005b845181101561059e5761057185828151811061054a5761054a6113ad565b6020026020010151858381518110610564576105646113ad565b6020026020010151610226565b828281518110610583576105836113ad565b6020908102919091010152610597816113d9565b905061052c565b509392505050565b336001600160a01b03831614156106115760405162461bcd60e51b815260206004820152602960248201527f455243313135353a2073657474696e6720617070726f76616c20737461747573604482015268103337b91039b2b63360b91b606482015260840161028e565b3360008181526001602090815260408083206001600160a01b03871680855290835292819020805460ff191686151590811790915590519081529192917f17307eab39ab6107e8899845ad3d59bd9653f200f220920489ca2b5937696c31910160405180910390a35050565b6001600160a01b038516331480610699575061069985336101c2565b6106f75760405162461bcd60e51b815260206004820152602960248201527f455243313135353a2063616c6c6572206973206e6f74206f776e6572206e6f7260448201526808185c1c1c9bdd995960ba1b606482015260840161028e565b6104758585858585610a02565b6001600160a01b0384166107645760405162461bcd60e51b815260206004820152602160248201527f455243313135353a206d696e7420746f20746865207a65726f206164647265736044820152607360f81b606482015260840161028e565b3361077e8160008761077588610b1f565b61047588610b1f565b6000848152602081815260408083206001600160a01b0389168452909152812080548592906107ae9084906113f4565b909155505060408051858152602081018590526001600160a01b0380881692600092918516917fc3d58168c5ae7397731d063d5bbf3d657854427343f4c083240f7aacaa2d0f62910160405180910390a461047581600087878787610b6a565b8051610821906002906020840190610d9f565b5050565b81518351146108875760405162461bcd60e51b815260206004820152602860248201527f455243313135353a2069647320616e6420616d6f756e7473206c656e677468206044820152670dad2e6dac2e8c6d60c31b606482015260840161028e565b6001600160a01b0384166108ad5760405162461bcd60e51b815260040161028e9061140c565b3360005b84518110156109945760008582815181106108ce576108ce6113ad565b6020026020010151905060008583815181106108ec576108ec6113ad565b602090810291909101810151600084815280835260408082206001600160a01b038e16835290935291909120549091508181101561093c5760405162461bcd60e51b815260040161028e90611451565b6000838152602081815260408083206001600160a01b038e8116855292528083208585039055908b168252812080548492906109799084906113f4565b925050819055505050508061098d906113d9565b90506108b1565b50846001600160a01b0316866001600160a01b0316826001600160a01b03167f4a39dc06d4c0dbc64b70af90fd698a233a518aa5d07e595d983b8c0526c8f7fb87876040516109e492919061149b565b60405180910390a46109fa818787878787610cd5565b505050505050565b6001600160a01b038416610a285760405162461bcd60e51b815260040161028e9061140c565b33610a3881878761077588610b1f565b6000848152602081815260408083206001600160a01b038a16845290915290205483811015610a795760405162461bcd60e51b815260040161028e90611451565b6000858152602081815260408083206001600160a01b038b8116855292528083208785039055908816825281208054869290610ab69084906113f4565b909155505060408051868152602081018690526001600160a01b03808916928a821692918616917fc3d58168c5ae7397731d063d5bbf3d657854427343f4c083240f7aacaa2d0f62910160405180910390a4610b16828888888888610b6a565b50505050505050565b60408051600180825281830190925260609160009190602080830190803683370190505090508281600081518110610b5957610b596113ad565b602090810291909101015292915050565b6001600160a01b0384163b156109fa5760405163f23a6e6160e01b81526001600160a01b0385169063f23a6e6190610bae90899089908890889088906004016114c9565b602060405180830381600087803b158015610bc857600080fd5b505af1925050508015610bf8575060408051601f3d908101601f19168201909252610bf59181019061150e565b60015b610ca557610c0461152b565b806308c379a01415610c3e5750610c19611547565b80610c245750610c40565b8060405162461bcd60e51b815260040161028e9190610f21565b505b60405162461bcd60e51b815260206004820152603460248201527f455243313135353a207472616e7366657220746f206e6f6e20455243313135356044820152732932b1b2b4bb32b91034b6b83632b6b2b73a32b960611b606482015260840161028e565b6001600160e01b0319811663f23a6e6160e01b14610b165760405162461bcd60e51b815260040161028e906115d1565b6001600160a01b0384163b156109fa5760405163bc197c8160e01b81526001600160a01b0385169063bc197c8190610d199089908990889088908890600401611619565b602060405180830381600087803b158015610d3357600080fd5b505af1925050508015610d63575060408051601f3d908101601f19168201909252610d609181019061150e565b60015b610d6f57610c0461152b565b6001600160e01b0319811663bc197c8160e01b14610b165760405162461bcd60e51b815260040161028e906115d1565b828054610dab90611372565b90600052602060002090601f016020900481019282610dcd5760008555610e13565b82601f10610de657805160ff1916838001178555610e13565b82800160010185558215610e13579182015b82811115610e13578251825591602001919060010190610df8565b50610e1f929150610e23565b5090565b5b80821115610e1f5760008155600101610e24565b80356001600160a01b0381168114610e4f57600080fd5b919050565b60008060408385031215610e6757600080fd5b610e7083610e38565b946020939093013593505050565b6001600160e01b031981168114610e9457600080fd5b50565b600060208284031215610ea957600080fd5b8135610eb481610e7e565b9392505050565b600060208284031215610ecd57600080fd5b5035919050565b6000815180845260005b81811015610efa57602081850181015186830182015201610ede565b81811115610f0c576000602083870101525b50601f01601f19169290920160200192915050565b602081526000610eb46020830184610ed4565b634e487b7160e01b600052604160045260246000fd5b601f8201601f1916810167ffffffffffffffff81118282101715610f7057610f70610f34565b6040525050565b600067ffffffffffffffff831115610f9157610f91610f34565b604051610fa8601f8501601f191660200182610f4a565b809150838152848484011115610fbd57600080fd5b83836020830137600060208583010152509392505050565b600060208284031215610fe757600080fd5b813567ffffffffffffffff811115610ffe57600080fd5b8201601f8101841361100f57600080fd5b61101e84823560208401610f77565b949350505050565b600067ffffffffffffffff82111561104057611040610f34565b5060051b60200190565b600082601f83011261105b57600080fd5b8135602061106882611026565b6040516110758282610f4a565b83815260059390931b850182019282810191508684111561109557600080fd5b8286015b848110156110b05780358352918301918301611099565b509695505050505050565b600082601f8301126110cc57600080fd5b610eb483833560208501610f77565b600080600080600060a086880312156110f357600080fd5b6110fc86610e38565b945061110a60208701610e38565b9350604086013567ffffffffffffffff8082111561112757600080fd5b61113389838a0161104a565b9450606088013591508082111561114957600080fd5b61115589838a0161104a565b9350608088013591508082111561116b57600080fd5b50611178888289016110bb565b9150509295509295909350565b6000806040838503121561119857600080fd5b823567ffffffffffffffff808211156111b057600080fd5b818501915085601f8301126111c457600080fd5b813560206111d182611026565b6040516111de8282610f4a565b83815260059390931b85018201928281019150898411156111fe57600080fd5b948201945b838610156112235761121486610e38565b82529482019490820190611203565b9650508601359250508082111561123957600080fd5b506112468582860161104a565b9150509250929050565b600081518084526020808501945080840160005b8381101561128057815187529582019590820190600101611264565b509495945050505050565b602081526000610eb46020830184611250565b600080604083850312156112b157600080fd5b6112ba83610e38565b9150602083013580151581146112cf57600080fd5b809150509250929050565b600080604083850312156112ed57600080fd5b6112f683610e38565b915061130460208401610e38565b90509250929050565b600080600080600060a0868803121561132557600080fd5b61132e86610e38565b945061133c60208701610e38565b93506040860135925060608601359150608086013567ffffffffffffffff81111561136657600080fd5b611178888289016110bb565b600181811c9082168061138657607f821691505b602082108114156113a757634e487b7160e01b600052602260045260246000fd5b50919050565b634e487b7160e01b600052603260045260246000fd5b634e487b7160e01b600052601160045260246000fd5b60006000198214156113ed576113ed6113c3565b5060010190565b60008219821115611407576114076113c3565b500190565b60208082526025908201527f455243313135353a207472616e7366657220746f20746865207a65726f206164604082015264647265737360d81b606082015260800190565b6020808252602a908201527f455243313135353a20696e73756666696369656e742062616c616e636520666f60408201526939103a3930b739b332b960b11b606082015260800190565b6040815260006114ae6040830185611250565b82810360208401526114c08185611250565b95945050505050565b6001600160a01b03868116825285166020820152604081018490526060810183905260a06080820181905260009061150390830184610ed4565b979650505050505050565b60006020828403121561152057600080fd5b8151610eb481610e7e565b600060033d11156115445760046000803e5060005160e01c5b90565b600060443d10156115555790565b6040516003193d81016004833e81513d67ffffffffffffffff816024840111818411171561158557505050505090565b828501915081518181111561159d5750505050505090565b843d87010160208285010111156115b75750505050505090565b6115c660208286010187610f4a565b509095945050505050565b60208082526028908201527f455243313135353a204552433131353552656365697665722072656a656374656040820152676420746f6b656e7360c01b606082015260800190565b6001600160a01b0386811682528516602082015260a06040820181905260009061164590830186611250565b82810360608401526116578186611250565b9050828103608084015261166b8185610ed4565b9897505050505050505056fea2646970667358221220af9f5f74f32a8a5a47725c8cc1daf6f51b1946fdea81df47dd3d23c9cf2e503964736f6c63430008090033",
  "bytecodeSha1": "acb9f4be8f196190df3c8a5946334aeaaeecb6f2",
  "compiler": {
    "evm_version": "istanbul",
    "optimizer": {
      "enabled": true,
      "runs": 200
    },
    "version": "0.8.9+commit.e5eed63a"
  },
  "contractName": "Mint_A_Gram",
  "language": "Solidity",
  "natspec": {
    "kind": "dev",
    "methods": {
      "balanceOf(address,uint256)": {
        "details": "See {IERC1155-balanceOf}. Requirements: - `account` cannot be the zero address."
      },
      "balanceOfBatch(address[],uint256[])": {
        "details": "See {IERC1155-balanceOfBatch}. Requirements: - `accounts` and `ids` must have the same length."
      },
      "isApprovedForAll(address,address)": {
        "details": "See {IERC1155-isApprovedForAll}."
      },
      "safeBatchTransferFrom(address,address,uint256[],uint256[],bytes)": {
        "details": "See {IERC1155-safeBatchTransferFrom}."
      },
      "safeTransferFrom(address,address,uint256,uint256,bytes)": {
        "details": "See {IERC1155-safeTransferFrom}."
      },
      "setApprovalForAll(address,bool)": {
        "details": "See {IERC1155-setApprovalForAll}."
      },
      "supportsInterface(bytes4)": {
        "details": "See {IERC165-supportsInterface}."
      },
      "uri(uint256)": {
        "details": "See {IERC1155MetadataURI-uri}. This implementation returns the same URI for *all* token types. It relies on the token type ID substitution mechanism https://eips.ethereum.org/EIPS/eip-1155#metadata[defined in the EIP]. Clients calling this function must replace the `\\{id\\}` substring with the actual token type ID."
      }
    },
    "version": 1
  },
  "opcodes": "PUSH1 0x80 PUSH1 0x40 MSTORE PUSH1 0x4 CALLDATASIZE LT PUSH2 0x90 JUMPI PUSH1 0x0 CALLDATALOAD PUSH1 0xE0 SHR DUP1 PUSH4 0x4E1273F4 GT PUSH2 0x59 JUMPI DUP1 PUSH4 0x4E1273F4 EQ PUSH2 0x15A JUMPI DUP1 PUSH4 0xA22CB465 EQ PUSH2 0x187 JUMPI DUP1 PUSH4 0xE985E9C5 EQ PUSH2 0x1A7 JUMPI DUP1 PUSH4 0xEA92DF56 EQ PUSH2 0x1F0 JUMPI DUP1 PUSH4 0xF242432A EQ PUSH2 0x206 JUMPI PUSH1 0x0 DUP1 REVERT JUMPDEST DUP1 PUSH3 0xFDD58E EQ PUSH2 0x95 JUMPI DUP1 PUSH4 0x1FFC9A7 EQ PUSH2 0xC8 JUMPI DUP1 PUSH4 0xE89341C EQ PUSH2 0xF8 JUMPI DUP1 PUSH4 0x187AF988 EQ PUSH2 0x125 JUMPI DUP1 PUSH4 0x2EB2C2D6 EQ PUSH2 0x138 JUMPI JUMPDEST PUSH1 0x0 DUP1 REVERT JUMPDEST CALLVALUE DUP1 ISZERO PUSH2 0xA1 JUMPI PUSH1 0x0 DUP1 REVERT JUMPDEST POP PUSH2 0xB5 PUSH2 0xB0 CALLDATASIZE PUSH1 0x4 PUSH2 0xE54 JUMP JUMPDEST PUSH2 0x226 JUMP JUMPDEST PUSH1 0x40 MLOAD SWAP1 DUP2 MSTORE PUSH1 0x20 ADD JUMPDEST PUSH1 0x40 MLOAD DUP1 SWAP2 SUB SWAP1 RETURN JUMPDEST CALLVALUE DUP1 ISZERO PUSH2 0xD4 JUMPI PUSH1 0x0 DUP1 REVERT JUMPDEST POP PUSH2 0xE8 PUSH2 0xE3 CALLDATASIZE PUSH1 0x4 PUSH2 0xE97 JUMP JUMPDEST PUSH2 0x2BD JUMP JUMPDEST PUSH1 0x40 MLOAD SWAP1 ISZERO ISZERO DUP2 MSTORE PUSH1 0x20 ADD PUSH2 0xBF JUMP JUMPDEST CALLVALUE DUP1 ISZERO PUSH2 0x104 JUMPI PUSH1 0x0 DUP1 REVERT JUMPDEST POP PUSH2 0x118 PUSH2 0x113 CALLDATASIZE PUSH1 0x4 PUSH2 0xEBB JUMP JUMPDEST PUSH2 0x30F JUMP JUMPDEST PUSH1 0x40 MLOAD PUSH2 0xBF SWAP2 SWAP1 PUSH2 0xF21 JUMP JUMPDEST PUSH2 0xB5 PUSH2 0x133 CALLDATASIZE PUSH1 0x4 PUSH2 0xFD5 JUMP JUMPDEST PUSH2 0x3A3 JUMP JUMPDEST CALLVALUE DUP1 ISZERO PUSH2 0x144 JUMPI PUSH1 0x0 DUP1 REVERT JUMPDEST POP PUSH2 0x158 PUSH2 0x153 CALLDATASIZE PUSH1 0x4 PUSH2 0x10DB JUMP JUMPDEST PUSH2 0x3E5 JUMP JUMPDEST STOP JUMPDEST CALLVALUE DUP1 ISZERO PUSH2 0x166 JUMPI PUSH1 0x0 DUP1 REVERT JUMPDEST POP PUSH2 0x17A PUSH2 0x175 CALLDATASIZE PUSH1 0x4 PUSH2 0x1185 JUMP JUMPDEST PUSH2 0x47C JUMP JUMPDEST PUSH1 0x40 MLOAD PUSH2 0xBF SWAP2 SWAP1 PUSH2 0x128B JUMP JUMPDEST CALLVALUE DUP1 ISZERO PUSH2 0x193 JUMPI PUSH1 0x0 DUP1 REVERT JUMPDEST POP PUSH2 0x158 PUSH2 0x1A2 CALLDATASIZE PUSH1 0x4 PUSH2 0x129E JUMP JUMPDEST PUSH2 0x5A6 JUMP JUMPDEST CALLVALUE DUP1 ISZERO PUSH2 0x1B3 JUMPI PUSH1 0x0 DUP1 REVERT JUMPDEST POP PUSH2 0xE8 PUSH2 0x1C2 CALLDATASIZE PUSH1 0x4 PUSH2 0x12DA JUMP JUMPDEST PUSH1 0x1 PUSH1 0x1 PUSH1 0xA0 SHL SUB SWAP2 DUP3 AND PUSH1 0x0 SWAP1 DUP2 MSTORE PUSH1 0x1 PUSH1 0x20 SWAP1 DUP2 MSTORE PUSH1 0x40 DUP1 DUP4 KECCAK256 SWAP4 SWAP1 SWAP5 AND DUP3 MSTORE SWAP2 SWAP1 SWAP2 MSTORE KECCAK256 SLOAD PUSH1 0xFF AND SWAP1 JUMP JUMPDEST CALLVALUE DUP1 ISZERO PUSH2 0x1FC JUMPI PUSH1 0x0 DUP1 REVERT JUMPDEST POP PUSH2 0xB5 PUSH1 0x5 SLOAD DUP2 JUMP JUMPDEST CALLVALUE DUP1 ISZERO PUSH2 0x212 JUMPI PUSH1 0x0 DUP1 REVERT JUMPDEST POP PUSH2 0x158 PUSH2 0x221 CALLDATASIZE PUSH1 0x4 PUSH2 0x130D JUMP JUMPDEST PUSH2 0x67D JUMP JUMPDEST PUSH1 0x0 PUSH1 0x1 PUSH1 0x1 PUSH1 0xA0 SHL SUB DUP4 AND PUSH2 0x297 JUMPI PUSH1 0x40 MLOAD PUSH3 0x461BCD PUSH1 0xE5 SHL DUP2 MSTORE PUSH1 0x20 PUSH1 0x4 DUP3 ADD MSTORE PUSH1 0x2B PUSH1 0x24 DUP3 ADD MSTORE PUSH32 0x455243313135353A2062616C616E636520717565727920666F7220746865207A PUSH1 0x44 DUP3 ADD MSTORE PUSH11 0x65726F2061646472657373 PUSH1 0xA8 SHL PUSH1 0x64 DUP3 ADD MSTORE PUSH1 0x84 ADD JUMPDEST PUSH1 0x40 MLOAD DUP1 SWAP2 SUB SWAP1 REVERT JUMPDEST POP PUSH1 0x0 SWAP1 DUP2 MSTORE PUSH1 0x20 DUP2 DUP2 MSTORE PUSH1 0x40 DUP1 DUP4 KECCAK256 PUSH1 0x1 PUSH1 0x1 PUSH1 0xA0 SHL SUB SWAP5 SWAP1 SWAP5 AND DUP4 MSTORE SWAP3 SWAP1 MSTORE KECCAK256 SLOAD SWAP1 JUMP JUMPDEST PUSH1 0x0 PUSH1 0x1 PUSH1 0x1 PUSH1 0xE0 SHL SUB NOT DUP3 AND PUSH4 0x6CDB3D13 PUSH1 0xE1 SHL EQ DUP1 PUSH2 0x2EE JUMPI POP PUSH1 0x1 PUSH1 0x1 PUSH1 0xE0 SHL SUB NOT DUP3 AND PUSH4 0x3A24D07 PUSH1 0xE2 SHL EQ JUMPDEST DUP1 PUSH2 0x309 JUMPI POP PUSH4 0x1FFC9A7 PUSH1 0xE0 SHL PUSH1 0x1 PUSH1 0x1 PUSH1 0xE0 SHL SUB NOT DUP4 AND EQ JUMPDEST SWAP3 SWAP2 POP POP JUMP JUMPDEST PUSH1 0x60 PUSH1 0x2 DUP1 SLOAD PUSH2 0x31E SWAP1 PUSH2 0x1372 JUMP JUMPDEST DUP1 PUSH1 0x1F ADD PUSH1 0x20 DUP1 SWAP2 DIV MUL PUSH1 0x20 ADD PUSH1 0x40 MLOAD SWAP1 DUP2 ADD PUSH1 0x40 MSTORE DUP1 SWAP3 SWAP2 SWAP1 DUP2 DUP2 MSTORE PUSH1 0x20 ADD DUP3 DUP1 SLOAD PUSH2 0x34A SWAP1 PUSH2 0x1372 JUMP JUMPDEST DUP1 ISZERO PUSH2 0x397 JUMPI DUP1 PUSH1 0x1F LT PUSH2 0x36C JUMPI PUSH2 0x100 DUP1 DUP4 SLOAD DIV MUL DUP4 MSTORE SWAP2 PUSH1 0x20 ADD SWAP2 PUSH2 0x397 JUMP JUMPDEST DUP3 ADD SWAP2 SWAP1 PUSH1 0x0 MSTORE PUSH1 0x20 PUSH1 0x0 KECCAK256 SWAP1 JUMPDEST DUP2 SLOAD DUP2 MSTORE SWAP1 PUSH1 0x1 ADD SWAP1 PUSH1 0x20 ADD DUP1 DUP4 GT PUSH2 0x37A JUMPI DUP3 SWAP1 SUB PUSH1 0x1F AND DUP3 ADD SWAP2 JUMPDEST POP POP POP POP POP SWAP1 POP SWAP2 SWAP1 POP JUMP JUMPDEST PUSH1 0x0 PUSH2 0x3B3 PUSH1 0x3 DUP1 SLOAD PUSH1 0x1 ADD SWAP1 SSTORE JUMP JUMPDEST PUSH1 0x0 PUSH2 0x3BE PUSH1 0x3 SLOAD SWAP1 JUMP JUMPDEST SWAP1 POP PUSH2 0x3DC CALLER DUP3 PUSH1 0x1 PUSH1 0x40 MLOAD DUP1 PUSH1 0x20 ADD PUSH1 0x40 MSTORE DUP1 PUSH1 0x0 DUP2 MSTORE POP PUSH2 0x704 JUMP JUMPDEST PUSH2 0x309 DUP4 PUSH2 0x80E JUMP JUMPDEST PUSH1 0x1 PUSH1 0x1 PUSH1 0xA0 SHL SUB DUP6 AND CALLER EQ DUP1 PUSH2 0x401 JUMPI POP PUSH2 0x401 DUP6 CALLER PUSH2 0x1C2 JUMP JUMPDEST PUSH2 0x468 JUMPI PUSH1 0x40 MLOAD PUSH3 0x461BCD PUSH1 0xE5 SHL DUP2 MSTORE PUSH1 0x20 PUSH1 0x4 DUP3 ADD MSTORE PUSH1 0x32 PUSH1 0x24 DUP3 ADD MSTORE PUSH32 0x455243313135353A207472616E736665722063616C6C6572206973206E6F7420 PUSH1 0x44 DUP3 ADD MSTORE PUSH18 0x1BDDDB995C881B9BDC88185C1C1C9BDD9959 PUSH1 0x72 SHL PUSH1 0x64 DUP3 ADD MSTORE PUSH1 0x84 ADD PUSH2 0x28E JUMP JUMPDEST PUSH2 0x475 DUP6 DUP6 DUP6 DUP6 DUP6 PUSH2 0x825 JUMP JUMPDEST POP POP POP POP POP JUMP JUMPDEST PUSH1 0x60 DUP2 MLOAD DUP4 MLOAD EQ PUSH2 0x4E1 JUMPI PUSH1 0x40 MLOAD PUSH3 0x461BCD PUSH1 0xE5 SHL DUP2 MSTORE PUSH1 0x20 PUSH1 0x4 DUP3 ADD MSTORE PUSH1 0x29 PUSH1 0x24 DUP3 ADD MSTORE PUSH32 0x455243313135353A206163636F756E747320616E6420696473206C656E677468 PUSH1 0x44 DUP3 ADD MSTORE PUSH9 0x40DAD2E6DAC2E8C6D PUSH1 0xBB SHL PUSH1 0x64 DUP3 ADD MSTORE PUSH1 0x84 ADD PUSH2 0x28E JUMP JUMPDEST PUSH1 0x0 DUP4 MLOAD PUSH8 0xFFFFFFFFFFFFFFFF DUP2 GT ISZERO PUSH2 0x4FD JUMPI PUSH2 0x4FD PUSH2 0xF34 JUMP JUMPDEST PUSH1 0x40 MLOAD SWAP1 DUP1 DUP3 MSTORE DUP1 PUSH1 0x20 MUL PUSH1 0x20 ADD DUP3 ADD PUSH1 0x40 MSTORE DUP1 ISZERO PUSH2 0x526 JUMPI DUP2 PUSH1 0x20 ADD PUSH1 0x20 DUP3 MUL DUP1 CALLDATASIZE DUP4 CALLDATACOPY ADD SWAP1 POP JUMPDEST POP SWAP1 POP PUSH1 0x0 JUMPDEST DUP5 MLOAD DUP2 LT ISZERO PUSH2 0x59E JUMPI PUSH2 0x571 DUP6 DUP3 DUP2 MLOAD DUP2 LT PUSH2 0x54A JUMPI PUSH2 0x54A PUSH2 0x13AD JUMP JUMPDEST PUSH1 0x20 MUL PUSH1 0x20 ADD ADD MLOAD DUP6 DUP4 DUP2 MLOAD DUP2 LT PUSH2 0x564 JUMPI PUSH2 0x564 PUSH2 0x13AD JUMP JUMPDEST PUSH1 0x20 MUL PUSH1 0x20 ADD ADD MLOAD PUSH2 0x226 JUMP JUMPDEST DUP3 DUP3 DUP2 MLOAD DUP2 LT PUSH2 0x583 JUMPI PUSH2 0x583 PUSH2 0x13AD JUMP JUMPDEST PUSH1 0x20 SWAP1 DUP2 MUL SWAP2 SWAP1 SWAP2 ADD ADD MSTORE PUSH2 0x597 DUP2 PUSH2 0x13D9 JUMP JUMPDEST SWAP1 POP PUSH2 0x52C JUMP JUMPDEST POP SWAP4 SWAP3 POP POP POP JUMP JUMPDEST CALLER PUSH1 0x1 PUSH1 0x1 PUSH1 0xA0 SHL SUB DUP4 AND EQ ISZERO PUSH2 0x611 JUMPI PUSH1 0x40 MLOAD PUSH3 0x461BCD PUSH1 0xE5 SHL DUP2 MSTORE PUSH1 0x20 PUSH1 0x4 DUP3 ADD MSTORE PUSH1 0x29 PUSH1 0x24 DUP3 ADD MSTORE PUSH32 0x455243313135353A2073657474696E6720617070726F76616C20737461747573 PUSH1 0x44 DUP3 ADD MSTORE PUSH9 0x103337B91039B2B633 PUSH1 0xB9 SHL PUSH1 0x64 DUP3 ADD MSTORE PUSH1 0x84 ADD PUSH2 0x28E JUMP JUMPDEST CALLER PUSH1 0x0 DUP2 DUP2 MSTORE PUSH1 0x1 PUSH1 0x20 SWAP1 DUP2 MSTORE PUSH1 0x40 DUP1 DUP4 KECCAK256 PUSH1 0x1 PUSH1 0x1 PUSH1 0xA0 SHL SUB DUP8 AND DUP1 DUP6 MSTORE SWAP1 DUP4 MSTORE SWAP3 DUP2 SWAP1 KECCAK256 DUP1 SLOAD PUSH1 0xFF NOT AND DUP7 ISZERO ISZERO SWAP1 DUP2 OR SWAP1 SWAP2 SSTORE SWAP1 MLOAD SWAP1 DUP2 MSTORE SWAP2 SWAP3 SWAP2 PUSH32 0x17307EAB39AB6107E8899845AD3D59BD9653F200F220920489CA2B5937696C31 SWAP2 ADD PUSH1 0x40 MLOAD DUP1 SWAP2 SUB SWAP1 LOG3 POP POP JUMP JUMPDEST PUSH1 0x1 PUSH1 0x1 PUSH1 0xA0 SHL SUB DUP6 AND CALLER EQ DUP1 PUSH2 0x699 JUMPI POP PUSH2 0x699 DUP6 CALLER PUSH2 0x1C2 JUMP JUMPDEST PUSH2 0x6F7 JUMPI PUSH1 0x40 MLOAD PUSH3 0x461BCD PUSH1 0xE5 SHL DUP2 MSTORE PUSH1 0x20 PUSH1 0x4 DUP3 ADD MSTORE PUSH1 0x29 PUSH1 0x24 DUP3 ADD MSTORE PUSH32 0x455243313135353A2063616C6C6572206973206E6F74206F776E6572206E6F72 PUSH1 0x44 DUP3 ADD MSTORE PUSH9 0x8185C1C1C9BDD9959 PUSH1 0xBA SHL PUSH1 0x64 DUP3 ADD MSTORE PUSH1 0x84 ADD PUSH2 0x28E JUMP JUMPDEST PUSH2 0x475 DUP6 DUP6 DUP6 DUP6 DUP6 PUSH2 0xA02 JUMP JUMPDEST PUSH1 0x1 PUSH1 0x1 PUSH1 0xA0 SHL SUB DUP5 AND PUSH2 0x764 JUMPI PUSH1 0x40 MLOAD PUSH3 0x461BCD PUSH1 0xE5 SHL DUP2 MSTORE PUSH1 0x20 PUSH1 0x4 DUP3 ADD MSTORE PUSH1 0x21 PUSH1 0x24 DUP3 ADD MSTORE PUSH32 0x455243313135353A206D696E7420746F20746865207A65726F20616464726573 PUSH1 0x44 DUP3 ADD MSTORE PUSH1 0x73 PUSH1 0xF8 SHL PUSH1 0x64 DUP3 ADD MSTORE PUSH1 0x84 ADD PUSH2 0x28E JUMP JUMPDEST CALLER PUSH2 0x77E DUP2 PUSH1 0x0 DUP8 PUSH2 0x775 DUP9 PUSH2 0xB1F JUMP JUMPDEST PUSH2 0x475 DUP9 PUSH2 0xB1F JUMP JUMPDEST PUSH1 0x0 DUP5 DUP2 MSTORE PUSH1 0x20 DUP2 DUP2 MSTORE PUSH1 0x40 DUP1 DUP4 KECCAK256 PUSH1 0x1 PUSH1 0x1 PUSH1 0xA0 SHL SUB DUP10 AND DUP5 MSTORE SWAP1 SWAP2 MSTORE DUP2 KECCAK256 DUP1 SLOAD DUP6 SWAP3 SWAP1 PUSH2 0x7AE SWAP1 DUP5 SWAP1 PUSH2 0x13F4 JUMP JUMPDEST SWAP1 SWAP2 SSTORE POP POP PUSH1 0x40 DUP1 MLOAD DUP6 DUP2 MSTORE PUSH1 0x20 DUP2 ADD DUP6 SWAP1 MSTORE PUSH1 0x1 PUSH1 0x1 PUSH1 0xA0 SHL SUB DUP1 DUP9 AND SWAP3 PUSH1 0x0 SWAP3 SWAP2 DUP6 AND SWAP2 PUSH32 0xC3D58168C5AE7397731D063D5BBF3D657854427343F4C083240F7AACAA2D0F62 SWAP2 ADD PUSH1 0x40 MLOAD DUP1 SWAP2 SUB SWAP1 LOG4 PUSH2 0x475 DUP2 PUSH1 0x0 DUP8 DUP8 DUP8 DUP8 PUSH2 0xB6A JUMP JUMPDEST DUP1 MLOAD PUSH2 0x821 SWAP1 PUSH1 0x2 SWAP1 PUSH1 0x20 DUP5 ADD SWAP1 PUSH2 0xD9F JUMP JUMPDEST POP POP JUMP JUMPDEST DUP2 MLOAD DUP4 MLOAD EQ PUSH2 0x887 JUMPI PUSH1 0x40 MLOAD PUSH3 0x461BCD PUSH1 0xE5 SHL DUP2 MSTORE PUSH1 0x20 PUSH1 0x4 DUP3 ADD MSTORE PUSH1 0x28 PUSH1 0x24 DUP3 ADD MSTORE PUSH32 0x455243313135353A2069647320616E6420616D6F756E7473206C656E67746820 PUSH1 0x44 DUP3 ADD MSTORE PUSH8 0xDAD2E6DAC2E8C6D PUSH1 0xC3 SHL PUSH1 0x64 DUP3 ADD MSTORE PUSH1 0x84 ADD PUSH2 0x28E JUMP JUMPDEST PUSH1 0x1 PUSH1 0x1 PUSH1 0xA0 SHL SUB DUP5 AND PUSH2 0x8AD JUMPI PUSH1 0x40 MLOAD PUSH3 0x461BCD PUSH1 0xE5 SHL DUP2 MSTORE PUSH1 0x4 ADD PUSH2 0x28E SWAP1 PUSH2 0x140C JUMP JUMPDEST CALLER PUSH1 0x0 JUMPDEST DUP5 MLOAD DUP2 LT ISZERO PUSH2 0x994 JUMPI PUSH1 0x0 DUP6 DUP3 DUP2 MLOAD DUP2 LT PUSH2 0x8CE JUMPI PUSH2 0x8CE PUSH2 0x13AD JUMP JUMPDEST PUSH1 0x20 MUL PUSH1 0x20 ADD ADD MLOAD SWAP1 POP PUSH1 0x0 DUP6 DUP4 DUP2 MLOAD DUP2 LT PUSH2 0x8EC JUMPI PUSH2 0x8EC PUSH2 0x13AD JUMP JUMPDEST PUSH1 0x20 SWAP1 DUP2 MUL SWAP2 SWAP1 SWAP2 ADD DUP2 ADD MLOAD PUSH1 0x0 DUP5 DUP2 MSTORE DUP1 DUP4 MSTORE PUSH1 0x40 DUP1 DUP3 KECCAK256 PUSH1 0x1 PUSH1 0x1 PUSH1 0xA0 SHL SUB DUP15 AND DUP4 MSTORE SWAP1 SWAP4 MSTORE SWAP2 SWAP1 SWAP2 KECCAK256 SLOAD SWAP1 SWAP2 POP DUP2 DUP2 LT ISZERO PUSH2 0x93C JUMPI PUSH1 0x40 MLOAD PUSH3 0x461BCD PUSH1 0xE5 SHL DUP2 MSTORE PUSH1 0x4 ADD PUSH2 0x28E SWAP1 PUSH2 0x1451 JUMP JUMPDEST PUSH1 0x0 DUP4 DUP2 MSTORE PUSH1 0x20 DUP2 DUP2 MSTORE PUSH1 0x40 DUP1 DUP4 KECCAK256 PUSH1 0x1 PUSH1 0x1 PUSH1 0xA0 SHL SUB DUP15 DUP2 AND DUP6 MSTORE SWAP3 MSTORE DUP1 DUP4 KECCAK256 DUP6 DUP6 SUB SWAP1 SSTORE SWAP1 DUP12 AND DUP3 MSTORE DUP2 KECCAK256 DUP1 SLOAD DUP5 SWAP3 SWAP1 PUSH2 0x979 SWAP1 DUP5 SWAP1 PUSH2 0x13F4 JUMP JUMPDEST SWAP3 POP POP DUP2 SWAP1 SSTORE POP POP POP POP DUP1 PUSH2 0x98D SWAP1 PUSH2 0x13D9 JUMP JUMPDEST SWAP1 POP PUSH2 0x8B1 JUMP JUMPDEST POP DUP5 PUSH1 0x1 PUSH1 0x1 PUSH1 0xA0 SHL SUB AND DUP7 PUSH1 0x1 PUSH1 0x1 PUSH1 0xA0 SHL SUB AND DUP3 PUSH1 0x1 PUSH1 0x1 PUSH1 0xA0 SHL SUB AND PUSH32 0x4A39DC06D4C0DBC64B70AF90FD698A233A518AA5D07E595D983B8C0526C8F7FB DUP8 DUP8 PUSH1 0x40 MLOAD PUSH2 0x9E4 SWAP3 SWAP2 SWAP1 PUSH2 0x149B JUMP JUMPDEST PUSH1 0x40 MLOAD DUP1 SWAP2 SUB SWAP1 LOG4 PUSH2 0x9FA DUP2 DUP8 DUP8 DUP8 DUP8 DUP8 PUSH2 0xCD5 JUMP JUMPDEST POP POP POP POP POP POP JUMP JUMPDEST PUSH1 0x1 PUSH1 0x1 PUSH1 0xA0 SHL SUB DUP5 AND PUSH2 0xA28 JUMPI PUSH1 0x40 MLOAD PUSH3 0x461BCD PUSH1 0xE5 SHL DUP2 MSTORE PUSH1 0x4 ADD PUSH2 0x28E SWAP1 PUSH2 0x140C JUMP JUMPDEST CALLER PUSH2 0xA38 DUP2 DUP8 DUP8 PUSH2 0x775 DUP9 PUSH2 0xB1F JUMP JUMPDEST PUSH1 0x0 DUP5 DUP2 MSTORE PUSH1 0x20 DUP2 DUP2 MSTORE PUSH1 0x40 DUP1 DUP4 KECCAK256 PUSH1 0x1 PUSH1 0x1 PUSH1 0xA0 SHL SUB DUP11 AND DUP5 MSTORE SWAP1 SWAP2 MSTORE SWAP1 KECCAK256 SLOAD DUP4 DUP2 LT ISZERO PUSH2 0xA79 JUMPI PUSH1 0x40 MLOAD PUSH3 0x461BCD PUSH1 0xE5 SHL DUP2 MSTORE PUSH1 0x4 ADD PUSH2 0x28E SWAP1 PUSH2 0x1451 JUMP JUMPDEST PUSH1 0x0 DUP6 DUP2 MSTORE PUSH1 0x20 DUP2 DUP2 MSTORE PUSH1 0x40 DUP1 DUP4 KECCAK256 PUSH1 0x1 PUSH1 0x1 PUSH1 0xA0 SHL SUB DUP12 DUP2 AND DUP6 MSTORE SWAP3 MSTORE DUP1 DUP4 KECCAK256 DUP8 DUP6 SUB SWAP1 SSTORE SWAP1 DUP9 AND DUP3 MSTORE DUP2 KECCAK256 DUP1 SLOAD DUP7 SWAP3 SWAP1 PUSH2 0xAB6 SWAP1 DUP5 SWAP1 PUSH2 0x13F4 JUMP JUMPDEST SWAP1 SWAP2 SSTORE POP POP PUSH1 0x40 DUP1 MLOAD DUP7 DUP2 MSTORE PUSH1 0x20 DUP2 ADD DUP7 SWAP1 MSTORE PUSH1 0x1 PUSH1 0x1 PUSH1 0xA0 SHL SUB DUP1 DUP10 AND SWAP3 DUP11 DUP3 AND SWAP3 SWAP2 DUP7 AND SWAP2 PUSH32 0xC3D58168C5AE7397731D063D5BBF3D657854427343F4C083240F7AACAA2D0F62 SWAP2 ADD PUSH1 0x40 MLOAD DUP1 SWAP2 SUB SWAP1 LOG4 PUSH2 0xB16 DUP3 DUP9 DUP9 DUP9 DUP9 DUP9 PUSH2 0xB6A JUMP JUMPDEST POP POP POP POP POP POP POP JUMP JUMPDEST PUSH1 0x40 DUP1 MLOAD PUSH1 0x1 DUP1 DUP3 MSTORE DUP2 DUP4 ADD SWAP1 SWAP3 MSTORE PUSH1 0x60 SWAP2 PUSH1 0x0 SWAP2 SWAP1 PUSH1 0x20 DUP1 DUP4 ADD SWAP1 DUP1 CALLDATASIZE DUP4 CALLDATACOPY ADD SWAP1 POP POP SWAP1 POP DUP3 DUP2 PUSH1 0x0 DUP2 MLOAD DUP2 LT PUSH2 0xB59 JUMPI PUSH2 0xB59 PUSH2 0x13AD JUMP JUMPDEST PUSH1 0x20 SWAP1 DUP2 MUL SWAP2 SWAP1 SWAP2 ADD ADD MSTORE SWAP3 SWAP2 POP POP JUMP JUMPDEST PUSH1 0x1 PUSH1 0x1 PUSH1 0xA0 SHL SUB DUP5 AND EXTCODESIZE ISZERO PUSH2 0x9FA JUMPI PUSH1 0x40 MLOAD PUSH4 0xF23A6E61 PUSH1 0xE0 SHL DUP2 MSTORE PUSH1 0x1 PUSH1 0x1 PUSH1 0xA0 SHL SUB DUP6 AND SWAP1 PUSH4 0xF23A6E61 SWAP1 PUSH2 0xBAE SWAP1 DUP10 SWAP1 DUP10 SWAP1 DUP9 SWAP1 DUP9 SWAP1 DUP9 SWAP1 PUSH1 0x4 ADD PUSH2 0x14C9 JUMP JUMPDEST PUSH1 0x20 PUSH1 0x40 MLOAD DUP1 DUP4 SUB DUP2 PUSH1 0x0 DUP8 DUP1 EXTCODESIZE ISZERO DUP1 ISZERO PUSH2 0xBC8 JUMPI PUSH1 0x0 DUP1 REVERT JUMPDEST POP GAS CALL SWAP3 POP POP POP DUP1 ISZERO PUSH2 0xBF8 JUMPI POP PUSH1 0x40 DUP1 MLOAD PUSH1 0x1F RETURNDATASIZE SWAP1 DUP2 ADD PUSH1 0x1F NOT AND DUP3 ADD SWAP1 SWAP3 MSTORE PUSH2 0xBF5 SWAP2 DUP2 ADD SWAP1 PUSH2 0x150E JUMP JUMPDEST PUSH1 0x1 JUMPDEST PUSH2 0xCA5 JUMPI PUSH2 0xC04 PUSH2 0x152B JUMP JUMPDEST DUP1 PUSH4 0x8C379A0 EQ ISZERO PUSH2 0xC3E JUMPI POP PUSH2 0xC19 PUSH2 0x1547 JUMP JUMPDEST DUP1 PUSH2 0xC24 JUMPI POP PUSH2 0xC40 JUMP JUMPDEST DUP1 PUSH1 0x40 MLOAD PUSH3 0x461BCD PUSH1 0xE5 SHL DUP2 MSTORE PUSH1 0x4 ADD PUSH2 0x28E SWAP2 SWAP1 PUSH2 0xF21 JUMP JUMPDEST POP JUMPDEST PUSH1 0x40 MLOAD PUSH3 0x461BCD PUSH1 0xE5 SHL DUP2 MSTORE PUSH1 0x20 PUSH1 0x4 DUP3 ADD MSTORE PUSH1 0x34 PUSH1 0x24 DUP3 ADD MSTORE PUSH32 0x455243313135353A207472616E7366657220746F206E6F6E2045524331313535 PUSH1 0x44 DUP3 ADD MSTORE PUSH20 0x2932B1B2B4BB32B91034B6B83632B6B2B73A32B9 PUSH1 0x61 SHL PUSH1 0x64 DUP3 ADD MSTORE PUSH1 0x84 ADD PUSH2 0x28E JUMP JUMPDEST PUSH1 0x1 PUSH1 0x1 PUSH1 0xE0 SHL SUB NOT DUP2 AND PUSH4 0xF23A6E61 PUSH1 0xE0 SHL EQ PUSH2 0xB16 JUMPI PUSH1 0x40 MLOAD PUSH3 0x461BCD PUSH1 0xE5 SHL DUP2 MSTORE PUSH1 0x4 ADD PUSH2 0x28E SWAP1 PUSH2 0x15D1 JUMP JUMPDEST PUSH1 0x1 PUSH1 0x1 PUSH1 0xA0 SHL SUB DUP5 AND EXTCODESIZE ISZERO PUSH2 0x9FA JUMPI PUSH1 0x40 MLOAD PUSH4 0xBC197C81 PUSH1 0xE0 SHL DUP2 MSTORE PUSH1 0x1 PUSH1 0x1 PUSH1 0xA0 SHL SUB DUP6 AND SWAP1 PUSH4 0xBC197C81 SWAP1 PUSH2 0xD19 SWAP1 DUP10 SWAP1 DUP10 SWAP1 DUP9 SWAP1 DUP9 SWAP1 DUP9 SWAP1 PUSH1 0x4 ADD PUSH2 0x1619 JUMP JUMPDEST PUSH1 0x20 PUSH1 0x40 MLOAD DUP1 DUP4 SUB DUP2 PUSH1 0x0 DUP8 DUP1 EXTCODESIZE ISZERO DUP1 ISZERO PUSH2 0xD33 JUMPI PUSH1 0x0 DUP1 REVERT JUMPDEST POP GAS CALL SWAP3 POP POP POP DUP1 ISZERO PUSH2 0xD63 JUMPI POP PUSH1 0x40 DUP1 MLOAD PUSH1 0x1F RETURNDATASIZE SWAP1 DUP2 ADD PUSH1 0x1F NOT AND DUP3 ADD SWAP1 SWAP3 MSTORE PUSH2 0xD60 SWAP2 DUP2 ADD SWAP1 PUSH2 0x150E JUMP JUMPDEST PUSH1 0x1 JUMPDEST PUSH2 0xD6F JUMPI PUSH2 0xC04 PUSH2 0x152B JUMP JUMPDEST PUSH1 0x1 PUSH1 0x1 PUSH1 0xE0 SHL SUB NOT DUP2 AND PUSH4 0xBC197C81 PUSH1 0xE0 SHL EQ PUSH2 0xB16 JUMPI PUSH1 0x40 MLOAD PUSH3 0x461BCD PUSH1 0xE5 SHL DUP2 MSTORE PUSH1 0x4 ADD PUSH2 0x28E SWAP1 PUSH2 0x15D1 JUMP JUMPDEST DUP3 DUP1 SLOAD PUSH2 0xDAB SWAP1 PUSH2 0x1372 JUMP JUMPDEST SWAP1 PUSH1 0x0 MSTORE PUSH1 0x20 PUSH1 0x0 KECCAK256 SWAP1 PUSH1 0x1F ADD PUSH1 0x20 SWAP1 DIV DUP2 ADD SWAP3 DUP3 PUSH2 0xDCD JUMPI PUSH1 0x0 DUP6 SSTORE PUSH2 0xE13 JUMP JUMPDEST DUP3 PUSH1 0x1F LT PUSH2 0xDE6 JUMPI DUP1 MLOAD PUSH1 0xFF NOT AND DUP4 DUP1 ADD OR DUP6 SSTORE PUSH2 0xE13 JUMP JUMPDEST DUP3 DUP1 ADD PUSH1 0x1 ADD DUP6 SSTORE DUP3 ISZERO PUSH2 0xE13 JUMPI SWAP2 DUP3 ADD JUMPDEST DUP3 DUP2 GT ISZERO PUSH2 0xE13 JUMPI DUP3 MLOAD DUP3 SSTORE SWAP2 PUSH1 0x20 ADD SWAP2 SWAP1 PUSH1 0x1 ADD SWAP1 PUSH2 0xDF8 JUMP JUMPDEST POP PUSH2 0xE1F SWAP3 SWAP2 POP PUSH2 0xE23 JUMP JUMPDEST POP SWAP1 JUMP JUMPDEST JUMPDEST DUP1 DUP3 GT ISZERO PUSH2 0xE1F JUMPI PUSH1 0x0 DUP2 SSTORE PUSH1 0x1 ADD PUSH2 0xE24 JUMP JUMPDEST DUP1 CALLDATALOAD PUSH1 0x1 PUSH1 0x1 PUSH1 0xA0 SHL SUB DUP2 AND DUP2 EQ PUSH2 0xE4F JUMPI PUSH1 0x0 DUP1 REVERT JUMPDEST SWAP2 SWAP1 POP JUMP JUMPDEST PUSH1 0x0 DUP1 PUSH1 0x40 DUP4 DUP6 SUB SLT ISZERO PUSH2 0xE67 JUMPI PUSH1 0x0 DUP1 REVERT JUMPDEST PUSH2 0xE70 DUP4 PUSH2 0xE38 JUMP JUMPDEST SWAP5 PUSH1 0x20 SWAP4 SWAP1 SWAP4 ADD CALLDATALOAD SWAP4 POP POP POP JUMP JUMPDEST PUSH1 0x1 PUSH1 0x1 PUSH1 0xE0 SHL SUB NOT DUP2 AND DUP2 EQ PUSH2 0xE94 JUMPI PUSH1 0x0 DUP1 REVERT JUMPDEST POP JUMP JUMPDEST PUSH1 0x0 PUSH1 0x20 DUP3 DUP5 SUB SLT ISZERO PUSH2 0xEA9 JUMPI PUSH1 0x0 DUP1 REVERT JUMPDEST DUP2 CALLDATALOAD PUSH2 0xEB4 DUP2 PUSH2 0xE7E JUMP JUMPDEST SWAP4 SWAP3 POP POP POP JUMP JUMPDEST PUSH1 0x0 PUSH1 0x20 DUP3 DUP5 SUB SLT ISZERO PUSH2 0xECD JUMPI PUSH1 0x0 DUP1 REVERT JUMPDEST POP CALLDATALOAD SWAP2 SWAP1 POP JUMP JUMPDEST PUSH1 0x0 DUP2 MLOAD DUP1 DUP5 MSTORE PUSH1 0x0 JUMPDEST DUP2 DUP2 LT ISZERO PUSH2 0xEFA JUMPI PUSH1 0x20 DUP2 DUP6 ADD DUP2 ADD MLOAD DUP7 DUP4 ADD DUP3 ADD MSTORE ADD PUSH2 0xEDE JUMP JUMPDEST DUP2 DUP2 GT ISZERO PUSH2 0xF0C JUMPI PUSH1 0x0 PUSH1 0x20 DUP4 DUP8 ADD ADD MSTORE JUMPDEST POP PUSH1 0x1F ADD PUSH1 0x1F NOT AND SWAP3 SWAP1 SWAP3 ADD PUSH1 0x20 ADD SWAP3 SWAP2 POP POP JUMP JUMPDEST PUSH1 0x20 DUP2 MSTORE PUSH1 0x0 PUSH2 0xEB4 PUSH1 0x20 DUP4 ADD DUP5 PUSH2 0xED4 JUMP JUMPDEST PUSH4 0x4E487B71 PUSH1 0xE0 SHL PUSH1 0x0 MSTORE PUSH1 0x41 PUSH1 0x4 MSTORE PUSH1 0x24 PUSH1 0x0 REVERT JUMPDEST PUSH1 0x1F DUP3 ADD PUSH1 0x1F NOT AND DUP2 ADD PUSH8 0xFFFFFFFFFFFFFFFF DUP2 GT DUP3 DUP3 LT OR ISZERO PUSH2 0xF70 JUMPI PUSH2 0xF70 PUSH2 0xF34 JUMP JUMPDEST PUSH1 0x40 MSTORE POP POP JUMP JUMPDEST PUSH1 0x0 PUSH8 0xFFFFFFFFFFFFFFFF DUP4 GT ISZERO PUSH2 0xF91 JUMPI PUSH2 0xF91 PUSH2 0xF34 JUMP JUMPDEST PUSH1 0x40 MLOAD PUSH2 0xFA8 PUSH1 0x1F DUP6 ADD PUSH1 0x1F NOT AND PUSH1 0x20 ADD DUP3 PUSH2 0xF4A JUMP JUMPDEST DUP1 SWAP2 POP DUP4 DUP2 MSTORE DUP5 DUP5 DUP5 ADD GT ISZERO PUSH2 0xFBD JUMPI PUSH1 0x0 DUP1 REVERT JUMPDEST DUP4 DUP4 PUSH1 0x20 DUP4 ADD CALLDATACOPY PUSH1 0x0 PUSH1 0x20 DUP6 DUP4 ADD ADD MSTORE POP SWAP4 SWAP3 POP POP POP JUMP JUMPDEST PUSH1 0x0 PUSH1 0x20 DUP3 DUP5 SUB SLT ISZERO PUSH2 0xFE7 JUMPI PUSH1 0x0 DUP1 REVERT JUMPDEST DUP2 CALLDATALOAD PUSH8 0xFFFFFFFFFFFFFFFF DUP2 GT ISZERO PUSH2 0xFFE JUMPI PUSH1 0x0 DUP1 REVERT JUMPDEST DUP3 ADD PUSH1 0x1F DUP2 ADD DUP5 SGT PUSH2 0x100F JUMPI PUSH1 0x0 DUP1 REVERT JUMPDEST PUSH2 0x101E DUP5 DUP3 CALLDATALOAD PUSH1 0x20 DUP5 ADD PUSH2 0xF77 JUMP JUMPDEST SWAP5 SWAP4 POP POP POP POP JUMP JUMPDEST PUSH1 0x0 PUSH8 0xFFFFFFFFFFFFFFFF DUP3 GT ISZERO PUSH2 0x1040 JUMPI PUSH2 0x1040 PUSH2 0xF34 JUMP JUMPDEST POP PUSH1 0x5 SHL PUSH1 0x20 ADD SWAP1 JUMP JUMPDEST PUSH1 0x0 DUP3 PUSH1 0x1F DUP4 ADD SLT PUSH2 0x105B JUMPI PUSH1 0x0 DUP1 REVERT JUMPDEST DUP2 CALLDATALOAD PUSH1 0x20 PUSH2 0x1068 DUP3 PUSH2 0x1026 JUMP JUMPDEST PUSH1 0x40 MLOAD PUSH2 0x1075 DUP3 DUP3 PUSH2 0xF4A JUMP JUMPDEST DUP4 DUP2 MSTORE PUSH1 0x5 SWAP4 SWAP1 SWAP4 SHL DUP6 ADD DUP3 ADD SWAP3 DUP3 DUP2 ADD SWAP2 POP DUP7 DUP5 GT ISZERO PUSH2 0x1095 JUMPI PUSH1 0x0 DUP1 REVERT JUMPDEST DUP3 DUP7 ADD JUMPDEST DUP5 DUP2 LT ISZERO PUSH2 0x10B0 JUMPI DUP1 CALLDATALOAD DUP4 MSTORE SWAP2 DUP4 ADD SWAP2 DUP4 ADD PUSH2 0x1099 JUMP JUMPDEST POP SWAP7 SWAP6 POP POP POP POP POP POP JUMP JUMPDEST PUSH1 0x0 DUP3 PUSH1 0x1F DUP4 ADD SLT PUSH2 0x10CC JUMPI PUSH1 0x0 DUP1 REVERT JUMPDEST PUSH2 0xEB4 DUP4 DUP4 CALLDATALOAD PUSH1 0x20 DUP6 ADD PUSH2 0xF77 JUMP JUMPDEST PUSH1 0x0 DUP1 PUSH1 0x0 DUP1 PUSH1 0x0 PUSH1 0xA0 DUP7 DUP9 SUB SLT ISZERO PUSH2 0x10F3 JUMPI PUSH1 0x0 DUP1 REVERT JUMPDEST PUSH2 0x10FC DUP7 PUSH2 0xE38 JUMP JUMPDEST SWAP5 POP PUSH2 0x110A PUSH1 0x20 DUP8 ADD PUSH2 0xE38 JUMP JUMPDEST SWAP4 POP PUSH1 0x40 DUP7 ADD CALLDATALOAD PUSH8 0xFFFFFFFFFFFFFFFF DUP1 DUP3 GT ISZERO PUSH2 0x1127 JUMPI PUSH1 0x0 DUP1 REVERT JUMPDEST PUSH2 0x1133 DUP10 DUP4 DUP11 ADD PUSH2 0x104A JUMP JUMPDEST SWAP5 POP PUSH1 0x60 DUP9 ADD CALLDATALOAD SWAP2 POP DUP1 DUP3 GT ISZERO PUSH2 0x1149 JUMPI PUSH1 0x0 DUP1 REVERT JUMPDEST PUSH2 0x1155 DUP10 DUP4 DUP11 ADD PUSH2 0x104A JUMP JUMPDEST SWAP4 POP PUSH1 0x80 DUP9 ADD CALLDATALOAD SWAP2 POP DUP1 DUP3 GT ISZERO PUSH2 0x116B JUMPI PUSH1 0x0 DUP1 REVERT JUMPDEST POP PUSH2 0x1178 DUP9 DUP3 DUP10 ADD PUSH2 0x10BB JUMP JUMPDEST SWAP2 POP POP SWAP3 SWAP6 POP SWAP3 SWAP6 SWAP1 SWAP4 POP JUMP JUMPDEST PUSH1 0x0 DUP1 PUSH1 0x40 DUP4 DUP6 SUB SLT ISZERO PUSH2 0x1198 JUMPI PUSH1 0x0 DUP1 REVERT JUMPDEST DUP3 CALLDATALOAD PUSH8 0xFFFFFFFFFFFFFFFF DUP1 DUP3 GT ISZERO PUSH2 0x11B0 JUMPI PUSH1 0x0 DUP1 REVERT JUMPDEST DUP2 DUP6 ADD SWAP2 POP DUP6 PUSH1 0x1F DUP4 ADD SLT PUSH2 0x11C4 JUMPI PUSH1 0x0 DUP1 REVERT JUMPDEST DUP2 CALLDATALOAD PUSH1 0x20 PUSH2 0x11D1 DUP3 PUSH2 0x1026 JUMP JUMPDEST PUSH1 0x40 MLOAD PUSH2 0x11DE DUP3 DUP3 PUSH2 0xF4A JUMP JUMPDEST DUP4 DUP2 MSTORE PUSH1 0x5 SWAP4 SWAP1 SWAP4 SHL DUP6 ADD DUP3 ADD SWAP3 DUP3 DUP2 ADD SWAP2 POP DUP10 DUP5 GT ISZERO PUSH2 0x11FE JUMPI PUSH1 0x0 DUP1 REVERT JUMPDEST SWAP5 DUP3 ADD SWAP5 JUMPDEST DUP4 DUP7 LT ISZERO PUSH2 0x1223 JUMPI PUSH2 0x1214 DUP7 PUSH2 0xE38 JUMP JUMPDEST DUP3 MSTORE SWAP5 DUP3 ADD SWAP5 SWAP1 DUP3 ADD SWAP1 PUSH2 0x1203 JUMP JUMPDEST SWAP7 POP POP DUP7 ADD CALLDATALOAD SWAP3 POP POP DUP1 DUP3 GT ISZERO PUSH2 0x1239 JUMPI PUSH1 0x0 DUP1 REVERT JUMPDEST POP PUSH2 0x1246 DUP6 DUP3 DUP7 ADD PUSH2 0x104A JUMP JUMPDEST SWAP2 POP POP SWAP3 POP SWAP3 SWAP1 POP JUMP JUMPDEST PUSH1 0x0 DUP2 MLOAD DUP1 DUP5 MSTORE PUSH1 0x20 DUP1 DUP6 ADD SWAP5 POP DUP1 DUP5 ADD PUSH1 0x0 JUMPDEST DUP4 DUP2 LT ISZERO PUSH2 0x1280 JUMPI DUP2 MLOAD DUP8 MSTORE SWAP6 DUP3 ADD SWAP6 SWAP1 DUP3 ADD SWAP1 PUSH1 0x1 ADD PUSH2 0x1264 JUMP JUMPDEST POP SWAP5 SWAP6 SWAP5 POP POP POP POP POP JUMP JUMPDEST PUSH1 0x20 DUP2 MSTORE PUSH1 0x0 PUSH2 0xEB4 PUSH1 0x20 DUP4 ADD DUP5 PUSH2 0x1250 JUMP JUMPDEST PUSH1 0x0 DUP1 PUSH1 0x40 DUP4 DUP6 SUB SLT ISZERO PUSH2 0x12B1 JUMPI PUSH1 0x0 DUP1 REVERT JUMPDEST PUSH2 0x12BA DUP4 PUSH2 0xE38 JUMP JUMPDEST SWAP2 POP PUSH1 0x20 DUP4 ADD CALLDATALOAD DUP1 ISZERO ISZERO DUP2 EQ PUSH2 0x12CF JUMPI PUSH1 0x0 DUP1 REVERT JUMPDEST DUP1 SWAP2 POP POP SWAP3 POP SWAP3 SWAP1 POP JUMP JUMPDEST PUSH1 0x0 DUP1 PUSH1 0x40 DUP4 DUP6 SUB SLT ISZERO PUSH2 0x12ED JUMPI PUSH1 0x0 DUP1 REVERT JUMPDEST PUSH2 0x12F6 DUP4 PUSH2 0xE38 JUMP JUMPDEST SWAP2 POP PUSH2 0x1304 PUSH1 0x20 DUP5 ADD PUSH2 0xE38 JUMP JUMPDEST SWAP1 POP SWAP3 POP SWAP3 SWAP1 POP JUMP JUMPDEST PUSH1 0x0 DUP1 PUSH1 0x0 DUP1 PUSH1 0x0 PUSH1 0xA0 DUP7 DUP9 SUB SLT ISZERO PUSH2 0x1325 JUMPI PUSH1 0x0 DUP1 REVERT JUMPDEST PUSH2 0x132E DUP7 PUSH2 0xE38 JUMP JUMPDEST SWAP5 POP PUSH2 0x133C PUSH1 0x20 DUP8 ADD PUSH2 0xE38 JUMP JUMPDEST SWAP4 POP PUSH1 0x40 DUP7 ADD CALLDATALOAD SWAP3 POP PUSH1 0x60 DUP7 ADD CALLDATALOAD SWAP2 POP PUSH1 0x80 DUP7 ADD CALLDATALOAD PUSH8 0xFFFFFFFFFFFFFFFF DUP2 GT ISZERO PUSH2 0x1366 JUMPI PUSH1 0x0 DUP1 REVERT JUMPDEST PUSH2 0x1178 DUP9 DUP3 DUP10 ADD PUSH2 0x10BB JUMP JUMPDEST PUSH1 0x1 DUP2 DUP2 SHR SWAP1 DUP3 AND DUP1 PUSH2 0x1386 JUMPI PUSH1 0x7F DUP3 AND SWAP2 POP JUMPDEST PUSH1 0x20 DUP3 LT DUP2 EQ ISZERO PUSH2 0x13A7 JUMPI PUSH4 0x4E487B71 PUSH1 0xE0 SHL PUSH1 0x0 MSTORE PUSH1 0x22 PUSH1 0x4 MSTORE PUSH1 0x24 PUSH1 0x0 REVERT JUMPDEST POP SWAP2 SWAP1 POP JUMP JUMPDEST PUSH4 0x4E487B71 PUSH1 0xE0 SHL PUSH1 0x0 MSTORE PUSH1 0x32 PUSH1 0x4 MSTORE PUSH1 0x24 PUSH1 0x0 REVERT JUMPDEST PUSH4 0x4E487B71 PUSH1 0xE0 SHL PUSH1 0x0 MSTORE PUSH1 0x11 PUSH1 0x4 MSTORE PUSH1 0x24 PUSH1 0x0 REVERT JUMPDEST PUSH1 0x0 PUSH1 0x0 NOT DUP3 EQ ISZERO PUSH2 0x13ED JUMPI PUSH2 0x13ED PUSH2 0x13C3 JUMP JUMPDEST POP PUSH1 0x1 ADD SWAP1 JUMP JUMPDEST PUSH1 0x0 DUP3 NOT DUP3 GT ISZERO PUSH2 0x1407 JUMPI PUSH2 0x1407 PUSH2 0x13C3 JUMP JUMPDEST POP ADD SWAP1 JUMP JUMPDEST PUSH1 0x20 DUP1 DUP3 MSTORE PUSH1 0x25 SWAP1 DUP3 ADD MSTORE PUSH32 0x455243313135353A207472616E7366657220746F20746865207A65726F206164 PUSH1 0x40 DUP3 ADD MSTORE PUSH5 0x6472657373 PUSH1 0xD8 SHL PUSH1 0x60 DUP3 ADD MSTORE PUSH1 0x80 ADD SWAP1 JUMP JUMPDEST PUSH1 0x20 DUP1 DUP3 MSTORE PUSH1 0x2A SWAP1 DUP3 ADD MSTORE PUSH32 0x455243313135353A20696E73756666696369656E742062616C616E636520666F PUSH1 0x40 DUP3 ADD MSTORE PUSH10 0x39103A3930B739B332B9 PUSH1 0xB1 SHL PUSH1 0x60 DUP3 ADD MSTORE PUSH1 0x80 ADD SWAP1 JUMP JUMPDEST PUSH1 0x40 DUP2 MSTORE PUSH1 0x0 PUSH2 0x14AE PUSH1 0x40 DUP4 ADD DUP6 PUSH2 0x1250 JUMP JUMPDEST DUP3 DUP2 SUB PUSH1 0x20 DUP5 ADD MSTORE PUSH2 0x14C0 DUP2 DUP6 PUSH2 0x1250 JUMP JUMPDEST SWAP6 SWAP5 POP POP POP POP POP JUMP JUMPDEST PUSH1 0x1 PUSH1 0x1 PUSH1 0xA0 SHL SUB DUP7 DUP2 AND DUP3 MSTORE DUP6 AND PUSH1 0x20 DUP3 ADD MSTORE PUSH1 0x40 DUP2 ADD DUP5 SWAP1 MSTORE PUSH1 0x60 DUP2 ADD DUP4 SWAP1 MSTORE PUSH1 0xA0 PUSH1 0x80 DUP3 ADD DUP2 SWAP1 MSTORE PUSH1 0x0 SWAP1 PUSH2 0x1503 SWAP1 DUP4 ADD DUP5 PUSH2 0xED4 JUMP JUMPDEST SWAP8 SWAP7 POP POP POP POP POP POP POP JUMP JUMPDEST PUSH1 0x0 PUSH1 0x20 DUP3 DUP5 SUB SLT ISZERO PUSH2 0x1520 JUMPI PUSH1 0x0 DUP1 REVERT JUMPDEST DUP2 MLOAD PUSH2 0xEB4 DUP2 PUSH2 0xE7E JUMP JUMPDEST PUSH1 0x0 PUSH1 0x3 RETURNDATASIZE GT ISZERO PUSH2 0x1544 JUMPI PUSH1 0x4 PUSH1 0x0 DUP1 RETURNDATACOPY POP PUSH1 0x0 MLOAD PUSH1 0xE0 SHR JUMPDEST SWAP1 JUMP JUMPDEST PUSH1 0x0 PUSH1 0x44 RETURNDATASIZE LT ISZERO PUSH2 0x1555 JUMPI SWAP1 JUMP JUMPDEST PUSH1 0x40 MLOAD PUSH1 0x3 NOT RETURNDATASIZE DUP2 ADD PUSH1 0x4 DUP4 RETURNDATACOPY DUP2 MLOAD RETURNDATASIZE PUSH8 0xFFFFFFFFFFFFFFFF DUP2 PUSH1 0x24 DUP5 ADD GT DUP2 DUP5 GT OR ISZERO PUSH2 0x1585 JUMPI POP POP POP POP POP SWAP1 JUMP JUMPDEST DUP3 DUP6 ADD SWAP2 POP DUP2 MLOAD DUP2 DUP2 GT ISZERO PUSH2 0x159D JUMPI POP POP POP POP POP POP SWAP1 JUMP JUMPDEST DUP5 RETURNDATASIZE DUP8 ADD ADD PUSH1 0x20 DUP3 DUP6 ADD ADD GT ISZERO PUSH2 0x15B7 JUMPI POP POP POP POP POP POP SWAP1 JUMP JUMPDEST PUSH2 0x15C6 PUSH1 0x20 DUP3 DUP7 ADD ADD DUP8 PUSH2 0xF4A JUMP JUMPDEST POP SWAP1 SWAP6 SWAP5 POP POP POP POP POP JUMP JUMPDEST PUSH1 0x20 DUP1 DUP3 MSTORE PUSH1 0x28 SWAP1 DUP3 ADD MSTORE PUSH32 0x455243313135353A204552433131353552656365697665722072656A65637465 PUSH1 0x40 DUP3 ADD MSTORE PUSH8 0x6420746F6B656E73 PUSH1 0xC0 SHL PUSH1 0x60 DUP3 ADD MSTORE PUSH1 0x80 ADD SWAP1 JUMP JUMPDEST PUSH1 0x1 PUSH1 0x1 PUSH1 0xA0 SHL SUB DUP7 DUP2 AND DUP3 MSTORE DUP6 AND PUSH1 0x20 DUP3 ADD MSTORE PUSH1 0xA0 PUSH1 0x40 DUP3 ADD DUP2 SWAP1 MSTORE PUSH1 0x0 SWAP1 PUSH2 0x1645 SWAP1 DUP4 ADD DUP7 PUSH2 0x1250 JUMP JUMPDEST DUP3 DUP2 SUB PUSH1 0x60 DUP5 ADD MSTORE PUSH2 0x1657 DUP2 DUP7 PUSH2 0x1250 JUMP JUMPDEST SWAP1 POP DUP3 DUP2 SUB PUSH1 0x80 DUP5 ADD MSTORE PUSH2 0x166B DUP2 DUP6 PUSH2 0xED4 JUMP JUMPDEST SWAP9 SWAP8 POP POP POP POP POP POP POP POP JUMP INVALID LOG2 PUSH5 0x6970667358 0x22 SLT KECCAK256 0xAF SWAP16 0x5F PUSH21 0xF32A8A5A47725C8CC1DAF6F51B1946FDEA81DF47DD RETURNDATASIZE 0x23 0xC9 0xCF 0x2E POP CODECOPY PUSH5 0x736F6C6343 STOP ADDMOD MULMOD STOP CALLER ",
  "sha1": "0052abaae9d8a6f57d65e2c33bd6b6f21e25aad8",
  "source": "// SPDX-License-Identifier: MIT\npragma solidity ^0.8.0;\n\nimport \"@openzeppelin/contracts/token/ERC1155/ERC1155.sol\";\nimport \"@openzeppelin/contracts/utils/math/SafeMath.sol\";\nimport \"@openzeppelin/contracts/utils/Counters.sol\";\n\ncontract Mint_A_Gram is ERC1155 {\n\n  using SafeMath for uint256;\n  using Counters for Counters.Counter;\n\n  Counters.Counter private _tokenIds;\n  string internal _tokenURI;\n  uint256 public _lottoFee;\n\n  constructor() public ERC1155(_tokenURI) {\n    //_mint(msg.sender, 1, 1, \"\"); // test mint\n  }\n\n  function mintImage(string memory tokenURI) public payable returns (uint256){\n    _tokenIds.increment(); \n    uint256 newItemId = _tokenIds.current();\n    _mint(msg.sender, newItemId, 1, \"\");\n    _setURI(tokenURI);\n  return newItemId;\n  }\n\n}",
  "sourcePath": "contracts/Mintagram.sol",
  "type": "contract"
}